:020000040800F2
:10000000F8FF0120A5CB090841CC09088541050866
:1000100041CC090841CC090841CC09080000000086
:1000200000000000000000000000000041CC0908B2
:1000300041CC09080000000041CC09081D29050831
:1000400041CC090841CC090841CC090841CC090838
:1000500041CC090841CC0908911D0508B91D0508C6
:10006000E11D0508091E0508311E0508C507000029
:10007000D5070000E9070000FD0700001108000097
:10008000250800003908000041CC090841CC0908C6
:1000900041CC090841CC090841CC0908591E050882
:1000A00041CC0908311E040841CC0908211E04086E
:1000B000411E0408511E0408611E04081568040846
:1000C0007D670408D56804083D68040841CC090828
:1000D00041CC0908610B0000590C0000510D0000D3
:1000E000951E050841CC0908000000001D1F0408EA
:1000F000F51E04082D1F0408E51E04084D08000025
:1001000041CC090841CC0908711E040841CC0908FA
:10011000490E0000410F0000811E0408F90609087D
:100120006108000075080000890800009D080000B3
:10013000B108000041CC090841CC090841CC0908AC
:1001400000000000000000000000000000000000AF
:10015000C5080000D9080000ED08000039100000B3
:1001600095690408FD68040841CC090841CC0908D8
:1001700041CC090841CC090841CC09080000000025
:1001800041CC090841CC09083111000029120000B6
:1001900041CC090841CC090841CC090841CC0908E7
:1001A00041CC090841CC090841CC090841CC0908D7
:1001B00041CC090841CC090841CC0908556A04081A
:1001C000BD69040841CC090841CC090841CC0908A3
:1001D00041CC090839F5080841CC090841CC090887
:1001E00041CC090841CC090841CC090841CC090897
:1001F00041CC090841CC090841CC090841CC090887
:1002000041CC090841CC090841CC090841CC090876
:100210003D1F04084D1F04085D1F040841CC090858
:1002200041CC090841CC090841CC09080000000074
:1002300041CC090841CC09080000000041CC090864
:1002400041CC090841CC090841CC090841CC090836
:1002500041CC090841CC090841CC090841CC090826
:1002600041CC090841CC090841CC090841CC090816
:1002700041CC090841CC090841CC09080000000024
:1002800041CC09080000000041CC09080000000032
:080290000000000041CC090848
:0828000000001E080000200882
:020000040804EE
:10000000002A4FEA014C034630B508BFE64600F12E
:10001000C00514BF8E468C46002419680C3353F873
:10002000042C43F8084C41EA0C0142EA0E02AB42B0
:1000300043F80C1C43F8042CEFD1D0F8C03043EA4D
:100040000E03C0E93144C0F8C03030BDF0B5414CBA
:1000500004EB401C9CF8203003B9F0BD4FF4B47E93
:100060003D4B002642010EFB004E9EF806518EF8D5
:1000700006618CF806501D7893F801C065450CD0D8
:100080000CEB4C0E03EBCE0E9EF804604FEA4C0EC8
:10009000771E012F52D9032E4AD022449180EFF3CC
:1000A0001181902383F312889379C9B2908843EA2F
:1000B000400300209BB2907181F3118819092078C8
:1000C00081EA13215940C8B1C9431B01D5690124F4
:1000D00090689BB201F00F01D5F8AC2084400B432F
:1000E00002F1C000590013F4004F8BB202D15168E5
:1000F000214351600C329042F4D1F0BD90681B0155
:10010000D26901F00F0110309BB20124D2F8AC206B
:100110000B43844002F1C000590013F4004F8BB22E
:1001200002D15168214351600C329042F4D1F0BDAC
:100130000CF1010606F00306AE42AED0E64403EB36
:10014000CE030344597C0029A7D0A318012098713D
:10015000A3E700BF08000020D817002470B50E4C9C
:10016000D4F8446C002E14DD0434002503E001357E
:100170002034B5420DD0237F002BF8D0E068002258
:100180000028F4D00135217D11F040FF2034B54224
:10019000F1D1012070BD00BF08000020704700BFF2
:1001A000024B03EB401393F8210070470800002036
:1001B0004368426D30B49A61EFF31182502383F3A8
:1001C00012884168D2B2856C0B68046D23EA05037E
:1001D00023430B6082F31188436981681A680968B8
:1001E00022F00102D0E908541A60826A1D605C6145
:1001F0005A60D0E90B429C60DA600023B0F86C20B2
:1002000030BCCA62037770474FF400638381704744
:10021000084A0346D0F8E4005268D3F8F010121AE6
:1002200000209142B8BFC3F8F020012283F81C21BE
:10023000704700BF001000E090F8DB30052B03D8BA
:1002400090F81E31032B01D00020704790F8233125
:1002500003F0FB03022B14BF07200020704700BFF0
:10026000084A0346D0F8E4005268D3F8F010121A96
:1002700000208A42C8BFC3F8F020012283F81C2165
:10028000704700BF001000E04FF4006383817047A7
:100290004FF4006383817047012380F81031704769
:1002A000002307B50F218DF807300DF10702012358
:1002B00010F0BEFF30B19DF80700A0F16C0358426A
:1002C0005841000103B05DF804FB4FF400638381E3
:1002D00070474FF40063838170474FF4006383815C
:1002E000704710B5064C94F864300BB9002010BD6F
:1002F00012F064FBA36EC01AD0F5FA50F7D5F5E7FB
:10030000D817002470B505460C46FFF7EAFF2B68A6
:100310005D6808B112F0A6FB064B00222846492171
:1003200083F86420224693F86530BDE8704011F0F0
:100330001BB800BFD817002402692DE9F843C36831
:1003400012EA030828D005460E464FF00047B8FAD7
:1003500088F327FA03F21B3BD24308EA02082A611A
:10036000042B16D8DFE803F0352C231A0300B36AF8
:10037000002B37D003F1FF3900231FFA89F9B3624C
:10038000746A34B123682046494698476468002C53
:10039000F8D1B8F1000FDAD1BDE8F8837068696B65
:1003A000036889B29847B8F1000FD0D1F4E7B0687C
:1003B000A96B036889B29847B8F1000FC7D1EBE782
:1003C000F068E96B036889B29847B8F1000FBED1B5
:1003D000E2E73069296C036889B29847B8F1000FE9
:1003E000B5D1D9E7EB6A1FFA83F9C9E78069B43060
:1003F0004AF010BE2DE9F04FDFF854A385B09AF80B
:10040000006006BBC64F57F8BC3C002B17DD00252B
:10041000A7F1B80029464669D0F8AC30346803F13A
:10042000C00224F00104346059600C339342FBD1C4
:10043000013557F8BC3C00F58670AB42EBDC01207F
:1004400005B0BDE8F08FB74BDC6E12F0B7FADAF802
:10045000483C03F11402DAF84C3CC31AB3EB420FE8
:10046000C0F28D81B04B4FF0000BB04F0AF54568DC
:10047000A3FB0423D9460AF1040EB3465B09A7FB8C
:100480000327FF0807EB8707A3EB4707FBB208EB3F
:10049000870703930AF573630193DAF8443C99459F
:1004A00080F2FF80DEF81850D5F8F420B9F1000F83
:1004B00000F021819E4B0021144698692033D0F82A
:1004C000F400904208BF59469E45F6D1002900F03D
:1004D00012816A690121DEF80430D5F8F8009940EC
:1004E000D3B2944D22F0FF02103B934EA5FB035371
:1004F000924D1B09EB5C13445B689BB2C01A234608
:10050000861904EB46061A889E4202EA010213D9B4
:100510005D8805EA010C002A00F0EB809D880D4003
:10052000BCF1000F00F0FA80DA880A40002D00F0DC
:1005300011810833002AE6D11A880A409446002A1D
:1005400040F0A1801C1BA0EB6400452828BF45207B
:1005500003EB4000834280F0968016461D46144609
:10056000CDF808B016E0B3F802B00BEA010B5A451B
:1005700040F0BB80B3F804B00BEA010B5A4540F0E1
:10058000B680DA8808330A40944206D1984207D9E7
:100590001A880A40A242E6D00233984200F28E80C6
:1005A000BCF1110FDDF808B06DD9CCF11503002BAB
:1005B00069DB07D006FA03F3CCF1140C012606FA26
:1005C0000CF61E435E4806F01F02C6F3C43350F813
:1005D000221050F8233041EA0331C6F34413C6F326
:1005E000842650F8233041EA031150F8263041EABE
:1005F0000321DAF8383F81EA1122013382EA12122C
:10060000CAF8383F02F00F020F2A4FD1B1F5803FF0
:100610004CD20909B1F5606F00F0A280019B99816D
:10062000B9F1030F05DC3F4B93F870302D2B00F030
:10063000938098F858300398834210D0BA68D8F85D
:1006400000309B1AC8F800303A6BD8F804309B1A77
:10065000C8F804300023BB603B6388F85800D8F822
:1006600000300133C8F80030BB680133BB604FF67F
:10067000FF73994207D1D8F804300133C8F8043029
:100680003B6B01333B63019B09F1010908F15C08F5
:100690005C371433B9F1080F0EF1200E01937FF48B
:1006A000FCAE284B012283F83820ABE6DAF8343F61
:1006B0004FF6FF710133CAF8343FBAE75D1B224A97
:1006C00033F8024C6D100C40013582FB05B2A2EBF1
:1006D000E5720125012AB8BF012296409444013AEF
:1006E00005FA02F21D46164352E7043355E7063376
:1006F00053E7023320E7BFF34F8F02F5907313499E
:10070000C1F85C2220329A42F9D1BFF34F8FBFF378
:100710006F8FDEF81850D5F8F440DAE604330BE7B3
:1007200000110020D81700241F85EB51CDCCCCCC74
:100730000C000020ABAAAAAAC7FFFF7F845F0A08AB
:1007400050D60908081000205655555500ED00E018
:10075000080000200633EFE60B4B23F8191068E77A
:100760000A4A537803EB430302EBC3034B445B7C1D
:100770000D2B7FF453AF0723019A937750E70020A6
:1007800005B0BDE8F08F00BF4C180024D817002436
:1007900010B504465AF0C8F80146204689B2BDE8B3
:1007A000104053E42DE9F843404B1A785B789A42A5
:1007B00075D13F4ED6F8443C06F10408002B39DDD4
:1007C000D8F8189045464FF0000E3A4FD9F8AC30A3
:1007D000BFF34F8F03F1E002C7F868322033934232
:1007E000FAD1BFF34F8FBFF36F8F0EF1010EAC46FE
:1007F0002035BEF1080F1DD0D6F8443C734519DDF5
:10080000D5F8189043460022D9F8AC40986903F116
:100810002001D0F8AC00844208BF01229C450B4661
:10082000F4D1002AD2D00EF1010EAC462035BEF133
:10083000080FE1D1DFF8848058F8BC5C002D11DD91
:100840003778A8F1B800002417B1037F012B20D01E
:100850004269013400F586701368AC4243F001032D
:100860001360F1D112F0AAF8D8F87843C6F84C0C0E
:10087000002C0CDD104B03EBC4041968083333F86B
:10088000042CC868A34242EA0002CA60F5D1BDE860
:10089000F883002380F8FC30FFF78AFCD8E759F092
:1008A000B1FB002885D1BDE8F88300BFD81700242C
:1008B0000800002000ED00E07C1400200011002062
:1008C0002DE9F047D0F85C7104467B4B00F5967932
:1008D000FEB227F0FF058268103E2846D2F800805D
:1008E000A3FB06363609314656F03AF9D4F81C21F6
:1008F0000023B2F5807F84F8203100F0D1800FD83A
:10090000102A00F0D58000F2AE80012A00F0978016
:10091000042A16BF6FF400616FF008013C2310E059
:10092000B2F5805F00F0C080B2F5803F00F08A80B1
:10093000B2F5806F15BF6FF400616FF008013C23C2
:1009400004234A4608F11809404659F803C001EA51
:100950000C0149F80310D4F81CA1514655F0C0FE13
:10096000BAF5807F7BD071D8BAF1100F00F08C807F
:1009700000F28280BAF1010F02D0BAF1040F7ED1E9
:100980000822D9F800301343C9F800304023C4F8D6
:10099000E8304A4B9A5DD4E93B3150590B43484902
:1009A00001400B43D4F8F4100B43D4F8F8100B4378
:1009B000D4F8FC100B43D4F808110B43D4F80C11F5
:1009C00043F0400353515319B1B1586920F0070C5B
:1009D000D4F810010143D4F8140141EA0C01596123
:1009E000515921F0C0710143D4F8180151515159A6
:1009F00021F4C00101435151D4F8E420D4F800118E
:100A0000DA60D4F8E0209A602E4AAD1A5A686FF383
:100A10000F0218BF01250A436D01D4F804115A6072
:100A2000294A324455F8223023F0FF030B4345F89E
:100A300022303B6843F010033B60BDE8F0876FF065
:100A400008017EE76FF008013C237AE7BAF5805F82
:100A500021D0BAF5803F1AD0BAF5806F0FD108F1D6
:100A60001C0908228DE7402A15BF6FF400616FF062
:100A700008013C23002364E7BAF1400F80D009F15C
:100A80003C094FF400627CE74FF4006279E708F11B
:100A90005409082275E708F11C094FF4006270E759
:100AA0006FF0080104234CE76FF40061042348E76A
:100AB0006FF4006145E700BFABAAAAAA845F0A08E9
:100AC0001F80FCFF00000240008200102DE9F04F63
:100AD000DFF834A187B09AF800301BB9012007B0C5
:100AE000BDE8F08F424B434DDC6E11F067FF95F887
:100AF000B03A002B00F0C4813F4B0AF545670AF578
:100B000073690026A3FB04323C4B0AF58274C84685
:100B10005209A3FB0213DB0803EB8303A2EB43039D
:100B2000D5F8B82A821A07EB830B0292DAB2059243
:100B3000029A002A04DBD4F82431934200F387811F
:100B40004FF4B47303FB06A393F8243203F0FF02BF
:100B50000192002B00F0C880D4F85C11A3682848EB
:100B60001A68CBB221F0FF01103BA0FB030325481C
:100B70001B09C35C0B44A1895D68D368ADB223EA4D
:100B80000103C5F11605D360072D40F2AD80DAF8F8
:100B9000383F00220121013394468946CAF8383F84
:100BA000D4F86431CDE9036418689E4614E0BCF1C2
:100BB000140F2BDC14F1080648BF04F1170634119A
:100BC0000CEB261C661E013102FA04F409FA06F643
:100BD0008D4246EA040219D304468D425EF8040FA2
:100BE000A0EB0404E3D8CCF115044FF0150CE9E7B1
:100BF000D8170024001100201F85EB51CDCCCCCCA0
:100C0000ABAAAAAA845F0A0808000020BCF1150F4D
:100C1000DDE9036440F012819E4DC2F38421C2F3EA
:100C2000441005EB810105EB8000D1F88010D0F86D
:100C30008000090241EA001102F01F00C2F3C43231
:100C400005EB800005EB8202D0F88000D2F880200E
:100C5000014341EA023282EA122181EA111101F0D4
:100C60000F010F2940F0EA80C2F30F114FF6FF7019
:100C70001209814200F0E280B1F5606F00F0EB8074
:100C8000A8F80C10032E07DC834B93F870302D2B43
:100C900002D1824B23F8162097F8583005998B42E1
:100CA00010D0DBF808203B689B1A3B607B68DBF8C0
:100CB00030209B1A7B600023CBF80830CBF8303013
:100CC00087F858103B6801333B60DBF8083001338C
:100CD000CBF80830019B3BB97B6801337B60DBF8C4
:100CE00030300133CBF8303020460136FFF7E8FDD5
:100CF0006B4B04F5B4745C3793F8B03A0BF15C0BB2
:100D000008F11408B3423FF713AF664A012182F895
:100D1000381000226249C1F8B82A002B3FF4DEAE39
:100D2000DAF80C219AF8DC11126811F0020FDAF8E7
:100D30002002116A0CBF014341EA8001012B1162BC
:100D40003FF4CCAEDAF874229AF84413126811F02A
:100D5000020FDAF88803116A0CBF014341EA8001EF
:100D6000022B11623FF4BAAEDAF8DC239AF8AC1425
:100D7000126811F0020FDAF8F004116A0CBF014397
:100D800041EA8001032B11623FF4A8AEDAF8442552
:100D90009AF81416126811F0020FDAF85806116A60
:100DA0000CBF014341EA8001042B11623FF496AE6F
:100DB000DAF8AC269AF87C17126811F0020FDAF80C
:100DC000C007116A0CBF014341EA8001052B116283
:100DD0003FF484AEDAF814289AF8E418126811F097
:100DE000020FDAF82809116A0CBF014341EA8001B9
:100DF000062B11623FF472AEDAF87C299AF84C1A8D
:100E0000126811F0020FDAF8900A116A0CBF014360
:100E100041EA8001082B11627FF460AEDAF8E43A0F
:100E20009AF8B42B1B68DAF8F81B12F0020F1A6A52
:100E300014BF42EA81020A431A624FE6DAF8342FFD
:100E40000132CAF8342FAEB10023019324E7002009
:100E500007B0BDE8F08F1048437803EB430300EB85
:100E6000C30333445B7C0D2B7FF40AAF072388F860
:100E70001E3007E7194658220B485AF04BFAE3E7B1
:100E80000AF580520121064882F83810C0F8B83AB5
:100E900024E600BF50D60908D81700244C180024B7
:100EA0000011002008100020E40F0020F7B51746BD
:100EB0001C460DF10702012305460E4610F0B8F955
:100EC00080B1022011F0CEFD9DF807303146284652
:100ED00023EA070222438DF8072010F027FB089829
:100EE00011F06AFF03B0F0BD44F23B332DE9F0414D
:100EF000A0F84C31064690F8213100F11005B3B34B
:100F00001F0903F00F03013F062F00F29080DFF866
:100F1000308108EB4702B2F8000140FA03F414F004
:100F200001040FD00122B844434C02FA03F3013B01
:100F300018405BF05FFC98F81031034404EBC304E5
:100F40002623E38031463D4B204641F80C3F53F0C9
:100F500017F964B1A2884FF0B0414FF00043B2FAE4
:100F600082F2D1F88000D3400343C1F8803096F874
:100F7000D830072B5DD196F81D410227023480221C
:100F80006B21284610F0D2FA642011F015FF0722D9
:100F90006821284610F0CAFA642011F00DFF0022E3
:100FA0006B21284610F0C2FA642011F005FF0122DF
:100FB0006B21284610F0BAFA0F2011F0FDFE1B211C
:100FC000E200284602F0F80210F0B0FA0F2011F00B
:100FD000F3FE1C21FA00284610F0A8FA0F2011F0A9
:100FE000EBFE3046FFF728F91A210246284610F09A
:100FF0009DFA0F2011F0E0FE96F8202119212846D5
:1010000010F094FA642011F0D7FE10223721284600
:1010100010F08CFA0F2011F0CFFE28460122382163
:1010200010F084FA0F20BDE8F04111F0C5BE002495
:1010300088E703273C46A2E7A41800249532040859
:1010400050D60908642373B500F1100400930123FE
:101050000546122120461A460126FFF727FF0222E5
:101060000D21204610F062FA012011F0A5FE0222A7
:101070000E21204610F05AFA012011F09DFE742234
:101080001021204610F052FA012011F095FEAC22FA
:101090001121204610F04AFA012011F08DFE442360
:1010A0007C22122120460096FFF700FF0623132121
:1010B00020461A460096FFF7F9FE00231722152155
:1010C00020460096FFF7F2FE0223204618211A461A
:1010D0000096FFF7EBFE95F8210178B111F0D2F8F8
:1010E000044608B12623C3802946074B204641F811
:1010F0000C3F53F045F8204610F03AFE034810F03C
:1011000087FAA88202B070BD990204088096980000
:101110002DE9F041054600F11006374810F078FA45
:1011200044F23B33A882A5F84C3195F82131ABB39A
:101130001F0903F00F03013F062F5BD8DFF8C480BF
:1011400008EB4702B2F8000140FA03F414F001047E
:101150000FD00122B844294C02FA03F3013B184096
:101160005BF048FB98F81031034404EBC3042623DA
:10117000E3802946224B204641F80C3F53F000F80B
:1011800064B1A2884FF0B0414FF00043B2FA82F24E
:10119000D1F88000D3400343C1F8803001226B2195
:1011A000304610F06BF9782011F05CFC30461822C4
:1011B0001B2110F063F9304618221C2110F05EF953
:1011C0002846FFF739F81A210246304610F056F942
:1011D00095F820213046192110F050F930461022A0
:1011E000372110F04BF9304601223821BDE8F0419B
:1011F00010F044B90024BCE700127A00A4180024BF
:101200009532040850D6090810B50446FFF76CFE65
:1012100010226A21A01810F031F9642011F0CCFDE1
:10122000044810F0F5F9A0820120BDE8104011F04B
:1012300019BC00BF002D310138B5802205466B2155
:1012400010F01CF9642011F0B7FDF521284610F0CC
:1012500087F9AC2818D005D8122817D0982817D0AD
:1012600000240FE0AF28FBD1092410226A21284670
:1012700010F004F928460322682110F0FFF86420DA
:1012800011F09AFD204638BD0724EEE70824ECE76C
:101290000B24EAE738B5802204466B2110F0EEF803
:1012A000642011F089FDF521204610F059F905461A
:1012B000012011F0D7FB682D1BD18C21204610F0A6
:1012C0004FF918280DD8142834BF002503252046CF
:1012D0000722682110F0D2F8642011F06DFD284635
:1012E00038BDA0F15403DBB2072B34BF0325002522
:1012F000EDE70025F3E7F52108B510F031F9702886
:1013000019D009D8422818D0472818D0A0F11203C4
:1013100058425841C00008BDAC2812D006D800F091
:10132000FD00712814BF00200620F4E7AF2814BF89
:1013300000200920EFE70520EDE70C20EBE70D206A
:10134000E9E70720E7E700BFBFF34F8F0549064BEA
:10135000CA6802F4E0621343CB60BFF34F8F00BF53
:10136000FDE700BF00ED00E00400FA052DE9F043C1
:10137000BFB0BFF35F8FA14A0020516A0346044605
:1013800021F4803151620146C2F89400C2F89830CD
:101390000133C2F89C10112BC2F8A010F6D105231E
:1013A000C2F89430536A43F480335362BFF34F8FD3
:1013B000BFF36F8F9248934A9349121A59F0AAFFCC
:1013C0009248934A9349121A59F0A4FF924BDA6D4E
:1013D000042A00F0FA8005D8012A00F06D83022A61
:1013E00000F08083854A00238C4C0120D2F88810BD
:1013F0008B4E41F470018B4DC2F888102060236140
:10140000216841F080012160216801432160216849
:1014100041F480312160216841F480512160A36151
:10142000E3612362A362E36223636363A363E36311
:1014300023646364216821F4802121607A49236652
:10144000C1F808014FF000614FF6FF00774B916043
:10145000D16801400B43D3604DF0D2F8A369024636
:101460000F20C3F30323A169334493F8183103F029
:101470001F0322FA03F3AB6249F096FD6C4AD3686E
:1014800013F0040FD36840F0A2806A4B0021684A31
:101490000591D96A21F00101D962DB6A03F00103E9
:1014A0000593936943F440439361936903F4404384
:1014B0000593059B93699B04FCD54C2200210EA843
:1014C0005D4C5AF029F95D4A42F203031268B3EB0E
:1014D000124F4FF000030893A4F1140308BF1C46F9
:1014E000E268002A4DD0534B5149D86A20F00100E0
:1014F000D862DB6A03F0010308938B6923F440434D
:1015000013438B618B6903F440430893089B484A5B
:1015100093699F04FCD5414B4FF440374848032161
:10152000D3F8E02042F08002C3F8E0200122D3F893
:10153000E03003F080030793079B87610D9B0091C8
:101540000193002352F0F0FF022322690EA8CDE997
:101550001733A3781E9201221993A3881A93A379B3
:101560001B93E3791C93237A1D9300231F934FF45D
:101570008033CDE90E234CF08BFD03283BD098B18E
:10158000FEE72B4A2B4B916941F4404191619269EE
:1015900002F440420892DA6A42F00102DA62DB6A3F
:1015A00003F001030893B1E7264B1A6812F00E0FFF
:1015B0004CD11A6822F00F0242F002021A601B6836
:1015C00003F00F03022B41D0FEE7DC650AE723F0AE
:1015D00007031D4C43F00203D360D4F84C1406E01B
:1015E000D4F84C345B1AB3F57A7F3FF64EAF5368AC
:1015F0009804F5D549E772B6FFF7A6FE00ED00E0C6
:1016000000000000B83D000060EA0A080000002069
:10161000080000209D4A0B08004000580044025872
:1016200050D6090800000024008000510003FA058C
:101630000048025800040058140000240010005C08
:10164000001C025800200052D81700246D4A9369EC
:1016500003F070033F2B05D8936923F0700343F028
:1016600040039361674AD36903F070033F2B05D8A9
:10167000D36923F0700343F04003D361614AD36917
:1016800003F4E063B3F5806F05D2D36923F4E0631C
:1016900043F48063D3615B4A136A03F070033F2B0A
:1016A00005D8136A23F0700343F040031362554BCF
:1016B0009A69100705D49A6922F00F0242F00802D5
:1016C0009A61504A936923F4706393611368990196
:1016D0007FF57AAF136941F288304B4C23F0070352
:1016E00043F003031361D4F84C1405E0D4F84C34F0
:1016F0005B1A834200F29881136903F03803182BB8
:10170000F4D1936903F00F03082B05D9936923F0F3
:101710000F0343F0080393613C4A136803F00F037F
:10172000022B0BD9136823F00F0343F0020313605D
:10173000136803F00F03022B7FF446AF314A93691D
:1017400003F07003402B05D9936923F0700343F035
:10175000400393612B4AD36903F07003402B05D9F2
:10176000D36923F0700343F04003D361254AD36962
:1017700003F4E063B3F5806F05D9D36923F4E06324
:1017800043F48063D3611F4A136A03F07003402B54
:1017900000F242811B4F4CF033FF0346E86ABA69FE
:1017A000B969C2F30322164496F8182102F01F0209
:1017B000D340AB6249F0F8FB002840F07C81102355
:1017C000159017900EA80E934CF062FC002840F084
:1017D00022813B680E4A43F080033B60D7F8F43027
:1017E00043F00203C7F8F430D7F8F43003F00203F3
:1017F0000493049B136A43F001031362054BD4F86E
:101800004C140CE000440258D81700240020005269
:101810000004005800E20400013B3FF4ECAED4F8B1
:101820004C249142F8D0D4F84C24D4F84C349B1A70
:101830000A2BFAD9AE4C4FF480224FF440130EA875
:101840000E924FF000082F9355F046FBD4F8EC3081
:1018500041F20302A749032643F002030EA8C4F88D
:10186000EC30D4F8EC3003F002030393039BD4F87C
:10187000943043F00203C4F89430D4F8943023F049
:101880000203C4F894300B689B49B2EB134F9B4B97
:101890009B4A28BF0A465A601A6822F47C5242F4D6
:1018A00000521A601A6842F060021A600E96CDE982
:1018B0002B8855F011FB4FF4E0430EA8CDF8E480DF
:1018C0000E93CDE9258855F007FB18230EA8CDF817
:1018D000B8800E93CDF8CC8055F0FEFA4FF400237B
:1018E0000EA80E934FF40033369355F0F5FAD4F862
:1018F000E0304FF48071834843F00103C4F8E030D6
:10190000D4F8E03003F0010309934346099A022218
:10191000CDE9006852F008FE23694FF400717A485F
:1019200023F0FE7343F088732361D4F8E03043F072
:101930000403C4F8E0304346D4F8E02002F0040287
:101940000692069A0222CDE9006852F0EDFD236965
:1019500023F07E4343F0FC4323614CF051FE6B4B7C
:101960006B4A4146A8621846D21A59F0D5FE69481A
:10197000694A6A49121A59F0CDFCBFF35F8F684D6E
:101980004646684C01276B6A23F480336B62C5F8C6
:10199000948023E0002946D0D4F80090637A103474
:1019A00014F8060C1B0643EA007343EA410314F8DB
:1019B000051C43EA814314F8041C43EA414314F82C
:1019C000031CC5F89860013643EA0143C5F89C90B2
:1019D000032E43F00103C5F8A03026D06368217AB6
:1019E000002BD7D0D4F800900029D7D129F01F01BF
:1019F000A3EB0108B8F1200F38BF4FF02008404694
:101A000059F022FD431E014607FA03F0804508BF46
:101A10001946C9B2C2E7FEE7136A23F0700343F028
:101A200040031362B6E6FEE7CEE50523C5F8943021
:101A30006B6A43F480336B62BFF34F8FBFF36F8FDA
:101A4000BFF34F8FBFF36F8F0022C5F85022BFF353
:101A50004F8FBFF36F8F6B6943F400336B61BFF33C
:101A60004F8FBFF36F8FC5F88420BFF34F8FD5F82A
:101A7000805043F6E0762A49C5F34E34C5F3C905D4
:101A8000640104EA06002B4640EA8372013BC1F878
:101A90006022F9D2203C14F1200FF2D1BFF34F8F16
:101AA0004B6943F480334B61BFF34F8FBFF36F8FAC
:101AB0003FB0BDE8F08387E50D4A02201A49D8659A
:101AC000D2F8F4300343C2F8F430D2F8F4300340D3
:101AD0000E930E9AD1F8003883F30888D1F80438B1
:101AE0009847FEE70422DA6572B6FFF72DFC00BFC7
:101AF000004402580010005C7FBB220000840040BC
:101B00007FBB22300000025800080258A0BC00240D
:101B1000A0BC0024E0BB0024A0BC0024A54A0B0804
:101B200000ED00E0300000240090F01F30B5274C9D
:101B30004FF6FF00264A85B0E168264B0140264D4E
:101B40000A43E260D3F8D020C5F85024D3F8DC2053
:101B500042F00052C3F8DC20D3F8DC2002F000523F
:101B60000192019AD3F8DC2042F08042C3F8DC20D5
:101B7000D3F8DC2002F080420292029AD3F8DC20F3
:101B800042F00042C3F8DC20D3F8DC3003F000431D
:101B90000393039B4CF034FDD4F8FC200F4942F032
:101BA00080720F4BA1FB00100E49C4F8FC204FF0CF
:101BB0006042800CC2F8B01F0022C5F854045A607D
:101BC0001A6842F001021A6005B030BD00ED00E075
:101BD0000005FA0500440258D817002483DE1B4391
:101BE000001000E055CEACC508B51D480023C0F874
:101BF0008430BFF34F8F436923F480334361BFF3D5
:101C00004F8FD0F8803043F6E074C3F34E3CC3F3FB
:101C1000C90E4FEA4C1C0CEA0401734641EA837278
:101C2000013BC0F874225A1CF8D1ACF1200C1CF115
:101C3000200FF0D1BFF34F8FBFF36F8FBFF34F8FE4
:101C4000BFF36F8F4369002223F400334361C0F870
:101C50005022BFF34F8FBFF36F8F72B6FFF774FB45
:101C600000ED00E0800AA0F58010522808D8054B4E
:101C7000034493F828310D2B02D8034AD0567047FD
:101C80000020704750D60908A45F0A0803689B0A21
:101C9000A3F58013522B58D870B5394C234493F8D0
:101CA00028310D2B50D840794FF04C0C354C4FF06B
:101CB000020E86080CFB034C03EB83000EFA06FEB3
:101CC000DCF8585403EB40003044EE68002942D061
:101CD00004EB800C46EA0E06CCF8D018CCF8E028CD
:101CE000EE60EFF31186502282F312882C2101FB63
:101CF0000340D0F8CC284AB3111DC0F8F028224A7E
:101D000003EB8300214D03EB4000800005441030BD
:101D1000024452F8040F08B10860011DAA42F8D12C
:101D20000022F6B20A6086F311882C2202FB0342DD
:101D3000D2F8F028CAB14C2202FB0343D3F858244E
:101D4000D36843F00103D36070BD70470E4A01FBB6
:101D500003212431D4E726EA0E06EE6004EB800569
:101D6000C5F8D018C5F8E028BBE74C2202FB0344B5
:101D7000D4F85824D36823F00103D36070BD00BFAA
:101D800050D60908D8170024A4200024C420002419
:101D900003689B0AA3F58013522B00D970470F4AA2
:101DA000134493F828310D2BF8D84FF04C0C10B495
:101DB0000B4C42790CFB03400223D0F85804DA4064
:101DC0009340C26829B922EA03035DF8044BC3605B
:101DD000704713435DF8044BC360704750D6090841
:101DE000D817002403689B0AA3F58013522B12D83E
:101DF000094A134493F828210D2A0CD8407902236C
:101E000006494FF04C0CD8400CFB02128340D2F82C
:101E10005824DB431361704750D60908D8170024B3
:101E200001490248FEF788BAA420002400000140BE
:101E300001490248FEF780BAA420002400000140B6
:101E400002494FF08040FEF777BA00BFD02000244F
:101E500001490248FEF770BAFC200024000400404B
:101E600001490248FEF768BA282100240008004012
:101E700001490248FEF760BA54210024000C0040DA
:101E8000F8B5164D164E2A69EB681A404FF000401F
:101E9000B2FA82F3EAB120FA03F3012A6FEA0303EC
:101EA00002EA03012B610A46F2D1D6F8D0798FB14C
:101EB000013F0023BFB2C6F8D039D6F8CC4934B1BF
:101EC00023682046394698476468002CF8D10022E0
:101ED000DCE7F8BDEF6ABFB2EFE700BF00100040DB
:101EE000D817002401490248FEF726BAD821002459
:101EF0000004014010B5064C064804F52061FEF7C9
:101F00001BFA04F658210448BDE81040FEF714BA45
:101F1000D817002400040140001C00400149024879
:101F2000FEF70ABA042200240018004001490248C2
:101F3000FEF702BA5C22002400200040014902485A
:101F4000FEF7FAB988220024004001400149024806
:101F5000FEF7F2B9B42200240044014001490248CE
:101F6000FEF7EAB9E022002400480140F0B54FF442
:101F700025728FB00021784859F0CEFB774B784D11
:101F80000027D3F8F020A5F5BE7605F52E6442F0C3
:101F90000102C3F8F020D3F8F02002F00102009211
:101FA000009AD3F8E82042F00102C3F8E820D3F801
:101FB000E82002F001020192019AD3F8E82042F0F1
:101FC0000202C3F8E820D3F8E82002F002020292ED
:101FD000029AD3F8E82042F00402C3F8E820D3F8CC
:101FE000E82002F004020392039AD3F8E82042F0BA
:101FF0000802C3F8E820D3F8E82002F008020492AF
:10200000049AD3F8E82042F01002C3F8E820D3F88D
:10201000E82002F010020592059AD3F8E82042F079
:102020002002C3F8E820D3F8E82002F0200206924C
:10203000069AD3F8F02042F00202C3F8F020D3F859
:10204000F02002F002020792079AD3F8E82042F04B
:102050004002C3F8E820D3F8E82002F040020892DA
:10206000089AD3F8E82042F08002C3F8E820D3F8B9
:10207000E82002F080020992099AD3F8E82042F49D
:102080008072C3F8E820D3F8E82002F480720A9244
:102090000A9AD3F8F02042F48032C3F8F020D3F843
:1020A000F02002F480320B920B9AD3F8F02042F425
:1020B0000032C3F8F020D3F8F02002F400320C9282
:1020C0000C9AD3F8F02042F48022C3F8F020D3F821
:1020D000F03003F480230D930D9B55F82710002357
:1020E00002E00133112B33D054F833209142F8D160
:1020F00006EBC303B3F8600C083752F0DDFFB7F509
:102100002E7FEAD1164FBB793BB1387910F0BAF87F
:10211000022110B13A7A0FF079FF2037A742F2D1AD
:10212000002755F82710002302E00133112B11D0AE
:1021300054F833209142F8D106EBC303B3F8600C96
:10214000083752F0B9FFB7F52E7FEAD10FB0F0BDD6
:102150000020D1E70020F3E7A42000240044025827
:10216000CCD70908704700BF1F4B984210B50ED05E
:1021700003F5806398420AD01C4A03F580439842D5
:1021800018BF904203D003F5806398421BD14CF0F6
:1021900059FA174B1749DC69DA69C4F3022CC2F308
:1021A000022201EB0C0393F8183103F01F03D8400F
:1021B0000F4B11491B69C3F3C03342EAC303CB5C25
:1021C00003FB00F010BD4CF03DFA094B0949DC69F6
:1021D000DA69C4F30214C2F302120B1993F818312E
:1021E00003F01F03D840E3E7000001400040014036
:1021F0000044025850D60908905F0A08830AA3F5E4
:102200008013522B4DD82DE9F0435E4D85B02B4401
:1022100093F828510D2D41D84C23DFF884811646C0
:10222000044603FB05F908EB0907D7F85824824256
:1022300034D00139C7F8580489B2C7F86414FFF7DD
:1022400093FF05EBC50209F10803B0FBF6F0013876
:1022500005EB4202C7F85C0408F58B60034400EB11
:1022600082000022C7F86024C3E902224CF034FC4B
:10227000454B9C4216D0B4F1804F13D0A3F57C435C
:102280009C420FD003F580639C420BD003F5806322
:102290009C4258D003F578439C4254D005B0BDE829
:1022A000F08370474C2202FB058292F89434012B94
:1022B000F4D0D2F85834022182F895143349986842
:1022C00001409960012182F89514002182F894144C
:1022D00000214C222C4802FB058203918342CDE968
:1022E00001114FF0020182F8951459689A6826D0BE
:1022F00000F58060834222D021F0700159602449AA
:102300008B420DD0B3F1804F0AD0224801F5006115
:102310008B4218BF834203D001F540618B4202D14A
:1023200022F080029A604C230121002203FB0583E6
:1023300083F8951483F8942405B0BDE8F08316481B
:1023400008405860ECE74C2202FB058292F8943476
:10235000012BA3D002230D49012082F89534D2F835
:1023600058349E6831409960002182F8950482F8C3
:1023700094140A4A9442ABD002F578429442A7D012
:102380008CE700BF50D60908000001408800CEFF4E
:1023900000040040000800408FFF0FFF000C0040C9
:1023A000D81700242DE9F0410468A30AA3F580138F
:1023B000522B05D82E4D2B4493F828610D2E01D9B0
:1023C000BDE8F0812046FFF719FF4C22294B02FBA4
:1023D000063393F89524012A27D00023264902E0EA
:1023E0000133112B33D051F833209442F8D105EB4F
:1023F000C3050126214F95F8624C314604F01F05B4
:10240000204652F0DDF91B2C4FEA541806FA05F568
:1024100047F8285023D02E2CD2D131462C2052F010
:10242000CFF94FF480537B60CAE70221D3F85824D8
:1024300083F89514124B91680B40062BCDD0B3F561
:10244000803FCAD0136843F001031360C5E7012140
:10245000002052F0B5F9094B01221A60B0E731466D
:10246000192052F0ADF94FF000733B60A8E700BFB0
:1024700050D60908D8170024ACE2090800E100E0B2
:10248000070001002DE9F8432422D0F8505181685B
:102490000023C0F8D02104462A6800F5A87622F06F
:1024A00001022A602B606B60AB60C0F8D83180F805
:1024B000CC31C0F8D031C0F854114079C4F8D431CF
:1024C000C4F86831C4F870318302BB4A03F4805306
:1024D0009542C4F858314FEA003303F40053C4F86E
:1024E0005C314FEA002303F48063C4F8603100F0EC
:1024F000B8812379D90703F0020200F13C81002A58
:1025000040F06E81C4F86421AC4B03F12C0153F808
:10251000042B944200F076818B42F8D10707D4F85F
:10252000D03140F18381002B00F0BD81242330465F
:10253000C4F8D0312B6823F001032B604CF08EFDE2
:10254000012817D0D4F87831002B40F0B3816B68A4
:10255000304623F490436B60AB6823F02203AB60FA
:10256000AB6843F00803AB602B6843F001032B60BA
:1025700054F0B8FB94F8048018F0010F6FD0D4F831
:102580002C71002F00F07181002304F13C094FF4FD
:102590008070E7632366E366C4E91133C4E914334A
:1025A000C4E91933D4F83431C4F8B8304FF4806337
:1025B000E3644FF48033C4E91603484655F0B0FA9B
:1025C000484649F073F8D4F8D431C4F8C891202BA8
:1025D000666741D1E368626998B2EAB3B0FA80F104
:1025E0004909C8B394F8CCC1BCF1010F34D04FF005
:1025F000220CC4F8D811A4F8AC010120C4F8D4C14D
:10260000DFF8D0C1C4F8A821C4F878C0DFF8C8C189
:10261000C4F88C10C4F87CC0DFF8C0C184F8CC01C9
:10262000C4F888C094F870C084450CD084F8700059
:1026300094F87100012800F041814FF4006384F8A0
:102640007010C4F890301023C4F8D831002384F8F7
:10265000CC312023C4F8D0317B68C4F8443118F061
:10266000020F00F08680D4F83051002D00F0108168
:10267000D4F83821002304F1B407C4F8C030384638
:10268000C4F8C830C4E92D524022C4F8BC204FF42D
:102690008062C4F8C4204FF48032C4E93333C4E903
:1026A0003633C4E93833C4F8D42055F039FA384603
:1026B00048F0FCFF002840F0A480414B4149424AC9
:1026C0008D4218BF9D42414801F16001C4F8C471B8
:1026D0000CBF01230023C4F8EC60954208BF43F00F
:1026E00001033032854208BF43F001036030954258
:1026F00008BF43F0010330328D4208BF43F00103AD
:1027000001F56871954208BF43F0010302F55C7260
:10271000854208BF43F0010300F56870954208BF89
:1027200043F0010330328D4208BF43F001036031B2
:10273000954208BF43F001033032854208BF43F0A1
:102740000103954208BF43F0010330328D4208BFB8
:1027500043F00103954208BF43F001033BB91C4B12
:10276000EB1AB3FA83F35B09002B00F0BF80002360
:102770006B60BDE8F8830423C4F8643172B10C23A4
:10278000C207C4F864317FF5BFAED4F878314FF496
:10279000803243F00203C4F8802129E0C3077FF5AB
:1027A000B3AED4F8783143F00203C4F878314FF473
:1027B0008033C4F88031A7E6000C0058C41B002009
:1027C0001000024028000240400002405800024031
:1027D000B8040240A9CE0808DDCE0808E1CE0808FA
:1027E0000823C4F86431C3077FF58EAED4F878317E
:1027F00043F00103C4F878314FF40033C4F87C315E
:1028000082E6FEE794F8F431002B3FF487AED4F86B
:102810007831070743F00803C4F878314FF40043D8
:10282000C4F88831D4F8D0313FF57DAE002B37D0D5
:1028300024233046C4F8D0312B6823F001032B60E9
:102840004CF00CFC01283FF495AED4F878316BBB0A
:102850006B68304623F490436B60AB6823F02A0327
:1028600081E60423C4F8743143E6D4F8DC311A68F5
:1028700042F480721A609A6842F001029A601A6803
:1028800042F020021A601A6842F010021A60E6E66E
:10289000D4F8DC21136843F080031360BDE8F883AB
:1028A00084F8CC31C4E784F8CC313FE630464CF0B4
:1028B000CDFDCDE730464CF0C9FD48E69BB2484619
:1028C00005F1240149F092F800287FF4BCAE84F8A9
:1028D000CC012B6843F480732B60AB6843F0010399
:1028E000AB60AB6843F04003AB60B5E66B6040E7BC
:1028F000F8B50446EFF31185502383F31288D0F81E
:1029000030311B6803F001031BB1EDB285F3118870
:10291000F8BDD0F8D021D0F8D4110A4302F021023A
:10292000212AF2D0D0E90912914250D090B24BD86E
:10293000194623691B1A9BB2A162002184F8E01199
:10294000D4F8D0112029E0D1A1698918DDD0B3FADB
:1029500083F25209002BD8D094F8CC010128D4D0AE
:102960002120A4F8A6314FF0010CC4F8D821C4F8F6
:10297000D001D4F8C401D4F85061C4F8A011A4F86F
:10298000A43184F8CCC160B31B4F90F834E0C76326
:102990001A4FE64502650764194FC7640AD090F8DC
:1029A000357080F834C0674515D04FF4006380F867
:1029B00034204365102100222023C4F8D81184F864
:1029C000CC21C4F8D031A0E7081A83B2B4E70123C0
:1029D00080F8E03199E706F1280249F007F800286D
:1029E000E8D100234022326284F8CC31B36843F04E
:1029F0008003B36089E700BF81CE0808A5CE080830
:102A0000E1CE08082DE9F8433F4C04EB8004D4F8EC
:102A1000C44A002C39D0D4F8E4511F463B4B9046B1
:102A2000A1600646236020466B68E98FC4F8DC315C
:102A3000D5E90D32E160C4E90523AB8F23610FF0C6
:102A40008FFD6B68A88DC4F85031002853D194F8DD
:102A5000EA010FF017FC3A07034694F8E89117D5FE
:102A600010B317F0110F49D117F0400F14BF4A21CE
:102A70003A210B2201361846DE719A7194F8EB2147
:102A80000EF01EFBD4F82C310BB32046BDE8F883C2
:102A900018F0020F08D038B10B228271721CC2717B
:102AA00094F8EB1152F088FB48460FF0EBFB50B165
:102AB00018F0010F07D001360C22C671827194F80C
:102AC000E91152F079FBD4F82C31002BDDD195F8C7
:102AD000321095F83000890951F072FE95F83030C7
:102AE00001220B4903F01F005B098240204641F898
:102AF0002320BDE8F88352F0DFFAA8E717F0410F72
:102B000014BF4A212A21B4E70011002034E3090848
:102B100000E100E02DE9F047984D05EB0013D3F8F4
:102B2000604B002C00F08F80B3F86A7B06464FEABA
:102B30000019384652F0C0FA01227B0907F01F073E
:102B4000023BBA40082B0FD8DFE813F0BF00C700E4
:102B5000CF00D700DF000900E700EF00B700884989
:102B6000CB6F23EA0203CB6705EB0903013693F829
:102B7000640BF6B20FF086FB074610B11223C67144
:102B8000837105EB090393F8650B0FF07BFB82461D
:102B900010B11323C671837105EB090393F8660B1B
:102BA0000FF070FB804610B11423C67183714D4441
:102BB00050462E2195F8682B0EF082FA95F8692B75
:102BC00040460E210EF07CFA95F8672B2E213846F0
:102BD0000EF076FA23686B4A23F0010394422360D7
:102BE00033D0694B9C423ED1654BD3F8902042F4E0
:102BF0008042C3F89020D3F8902022F48042C3F89A
:102C00009020E36843F00043E360A36823F4F0738B
:102C1000A3602368DA0716D4A1685C4A5C4B0A40BB
:102C20001343A360E368DB0042D5E268594B1340CD
:102C300043F0E863E360236823F400632360236DBB
:102C400023F001032365BDE8F0874D4BD3F89820AE
:102C500042F48052C3F89820D3F8982022F480528E
:102C6000C3F89820CDE74C4B9C4213D04B4B9C4271
:102C700063D04B4B9C426ED1414BD3F8982042F429
:102C80008012C3F89820D3F8982022F48012C3F859
:102C90009820B6E73A4BD3F8902042F40042C3F8AC
:102CA0009020D3F8902022F40042C3F89020A8E7A7
:102CB000236843F480532360B7E73149D1F89C304F
:102CC00023EA0203C1F89C304EE72D49D1F8983031
:102CD00023EA0203C1F8983046E72949D1F8903039
:102CE00023EA0203C1F890303EE72549D1F8943039
:102CF00023EA0203C1F8943036E72149D1F8803045
:102D000023EA0203C1F880302EE71D49D1F8843050
:102D100023EA0203C1F8843026E71949D1F88C3040
:102D200023EA0203C1F88C301EE71549D1F8883038
:102D300023EA0203C1F8883016E7114BD3F8982034
:102D400042F40052C3F89820D3F8982022F400529D
:102D5000C3F8982055E7134B9C427FF452AF03F51C
:102D60000C33D3F89C2042F02002C3F89C20D3F807
:102D70009C2022F02002C3F89C2042E7D8170024B0
:102D8000004402580030014000380040E0FFBF8F8F
:102D900007000020FFFF39D8003C0040003401400C
:102DA0000050014000140058114A037A0168D35CB6
:102DB00010B4CC58CA1824F00104CC501368DB07B7
:102DC000FCD4037D1F2B09D9203B20225DF8044B46
:102DD00002FA03F343F01803CB60704720225DF83A
:102DE000044B02FA03F343F018038B60704700BFF3
:102DF000845F0A082DE9F0410468D4E90435A8612C
:102E00001A7D1F681F2A49D9203A20212E6801FA0D
:102E100002F242F01802FA602A7D1F2A48D9203AAD
:102E2000202101FA02F242F01802F2606A680021E1
:102E30005868016038461160116841F01001116056
:102E400093F80880A269414653F02EFE2D7AE2697C
:102E50003046294653F028FE226A63689468184A6F
:102E600012F80800515D5A686FF30F0222435A604E
:102E70003A5842F001023A50725842F00102725040
:102E80009A6842F440429A601A6842F001021A605D
:102E90001A6842F400721A60BDE8F08120212E68A1
:102EA00001FA02F242F01802BA602A7D1F2AB6D84F
:102EB000202101FA02F242F01802B260B6E700BF28
:102EC000845F0A082DE9F04F0746A64B85B0A64E51
:102ED0003D68DFF8A8B26C689C4200F0AF81A3F5B2
:102EE00078439C4200F0AC8103F580639C4200F083
:102EF000AB8103F578439C4200F0A48103F5E053D5
:102F00009C4200F0A381994B9C420CBF05234FF0DB
:102F1000FF33B98801202A8997F888808A4285F88A
:102F2000240017D0B1F5807F0A469148A8BF4FF41E
:102F30008072022AB8BF022292FAA2F2B2FA82F298
:102F400000EB8202D2F8100DA26822F0E0420243A8
:102F5000A260298197F80CA0AA7A524551D0854ADF
:102F600002EB031393F864CB02934FEA1C190CF0A5
:102F70000F0C09F1FF39BAF1000F40F00D81B9F1E2
:102F8000060F34D87A4901EB4900B0F800E14EFA57
:102F90000CF0C1072BD5012303FA0CF0013800EA2D
:102FA0000E0059F027FC7249724A8944029BCC32C8
:102FB00099F810C193F8673B84446F48039352F823
:102FC0003C9002EBCC0248440292800A01EB4001A3
:102FD000B1F8340D52F070F8039B029A4846019301
:102FE0000123918803220092022251F09DFAE368A6
:102FF00043F08073E360E36843F00073E36085F8B7
:103000000AA0296A2A7B8B68002B00F021814FF0EF
:10301000000C1431DFF86891C246E646029251F87E
:10302000100C9E440CF1010C00EA0608034350B159
:103030006A6962B3B8F1005F29D0584501D34845A9
:1030400001D3DA0623D151F8143C143103EA060007
:1030500013B1B0F1005F1AD051F80C3C002BDED157
:10306000029ABAF1000F12D08AB1BCF1010F00F23E
:10307000F780BEF1070F00F2F3800CEB8C0C4FEAE7
:103080008C032A6A13441B7B002B00F0E9802B6A17
:103090009B68002B00F0C2804FF000093B46DFF830
:1030A000E4804F4699460FB13B7B33B1D9F80830E5
:1030B0001BB19A88196812048A612B6A19682B6AF5
:1030C0005A682B6A9868636803EA080303436360DD
:1030D000236843F001032360236843F400732360F3
:1030E00098B163699B07FCD500292ED011F8013BEC
:1030F00084F820306369DB07FCD594F83030DBB20C
:103100000AB102F8013B0138EBD163691B07FCD51A
:10311000A36943F01003A361236823F00103236034
:103120002B6A1B7B002B2FD12B6A1B697BB12B6A6F
:10313000D9F894001B69984701280CD0022806D1C1
:1031400000232B6205B0BDE8F08FFF23D0E72F6A84
:103150002B6A14332B622B6A9B68002B5ED06C6841
:10316000A1E700BF003001400000FEFF001400583E
:1031700050D60908D81700240000FEA7E0BB0024A1
:10318000A80A01240000FFFFD9F80830002BCBD09B
:103190001A689B889361C7E7B9F1060F35D839499A
:1031A00001EB4900B0F800E14EFA0CF0C0072CD555
:1031B000012000FA0CF0013800EA0E0059F01AFB69
:1031C0003049029B8944304A93F8673B99F810C113
:1031D000CC32029384442D4852F83C3002EBCC09A7
:1031E00018440393800A01EB4001B1F8340D51F00B
:1031F00063FF029B0193039BB9F804101846032355
:10320000009302231A4651F08FF9E36823F080738C
:10321000E360E36823F00073E360F0E62B6A1B6869
:103220006BB32B6A0022D3E9007129623D68C3E9C0
:1032300000226C68164B9C427FF451AE002368E676
:10324000012366E6032364E6022362E6042360E6C4
:10325000B8F1000F3FF41BAF002A3FF418AF10E79E
:103260000021386857F0E8FABA681AB193881268F2
:103270001B049361384605B0BDE8F04FBAE52B62F8
:1032800060E700BF50D60908D81700240000FEA749
:103290000030014038B52A4B0446D0F8D8105A689F
:1032A000D0F8E030501A834200DC23B9D4F8E4307F
:1032B0000B44C4F8DC3094F8D030C4F8D820012B8B
:1032C00005D0D4F8D4300133C4F8D43038BD201D33
:1032D00004F1E8056168EFF3118C102383F3128881
:1032E00063681B6A0BB3D4F8F0302A461BB1D3696C
:1032F0001432002BFBD10B6AFBB1996839B99342A8
:1033000009D0196829B15B6899680029F7D014338E
:10331000F3E7C3E900055FFA8CFC8CF31188D4F85D
:10332000D4300133C4F8D43038BD5FFA8CFC0D6260
:103330008CF31188FFF7C6FDC3E71860FFDE00BFFE
:10334000001000E0F0B5856997B004462B6995F848
:103350004C211978012907D0022902D1196A0029C4
:1033600033D0002017B0F0BD93F90430591CF8D0C9
:10337000032BF6DC6421494E01FB03F306EB030C3F
:10338000DCF8D83B0CF6D830002BEAD0297DFF2A98
:103390009CF8193C4FEA410161D0202B61D10623F2
:1033A000009304AB51F0A2FB00285AD1BDF81010D5
:1033B0000120BDF81220BDF8143049BA52BA5BBAE8
:1033C000E1812282638217B0F0BD62F07F02079133
:1033D0008DF8241000208DF80F200DF10F020F91B1
:1033E00006920122129108928DF838208DF84C2017
:1033F00006221491CDE90A1104A9CDE90C1200218D
:10340000CDE9100105F11000EFF31186102282F3CF
:1034100012882A69126A002A33D0089A06AF002A55
:1034200037D03A46D16914320029FBD11B6A002BF0
:1034300031D0996839B9934209D0196829B15B68CC
:1034400099680029F7D01433F3E7C3E90007F6B20F
:1034500086F311882A69136A002BFCD1A6E7202B7A
:1034600006D0B6F8503D01339BB2A6F8503D78E740
:103470009CF8183C012BF4D0062304AA51F020FA42
:1034800092E706AAF6B21A6286F31188FFF71AFDD0
:10349000E0E73A46CAE71860FFDE00BFD81700240D
:1034A000036970B5197896B0044690F84D2101294A
:1034B00007D0022902D1196A002936D0002016B09F
:1034C00070BD93F90430591CF8D0032BF6DC64214D
:1034D0004D4D01FB03F3E818034600F6D830D3F84E
:1034E000D81B0029EAD0217DFF2A4FEA410165D08F
:1034F00093F8193C202B65D10623009304AB51F0BF
:10350000F5FA00285ED1BDF810100120BDF8122098
:10351000BDF8143049BA52BA5BBAA4F8D010A4F876
:10352000D220A4F8D43016B070BD62F07F020791AB
:103530008DF8241010308DF80F200DF10F020F912F
:10354000069201221291149108928DF838208DF87C
:103550004C2006229FED2A7BCDE90A1104A98DEDAE
:10356000107BCDE90C12EFF31185102282F3128843
:103570002269126A002A35D0089A06AE002A39D08C
:103580003246D16914320029FBD11B6A002B33D09B
:10359000996839B9934209D0196829B15B6899686B
:1035A0000029F7D01433F3E7C3E90006EDB285F341
:1035B00011882269136A002BFCD1A4E793F8192C17
:1035C000202A06D0B5F8503D01339BB2A5F8503DF6
:1035D00074E793F8183C012BF4D0062304AA51F0A9
:1035E0006FF98EE706AAEDB21A6285F31188FFF72C
:1035F00069FCDEE73246C8E71860FFDEAFF3008003
:103600000000000000000000D817002444F23B3303
:103610002DE9F041A0F84C31054690F8213100F138
:103620001006B3B31F0903F00F03013F062F00F28A
:103630009080DFF8348108EB4702B2F8000140FACD
:1036400003F414F001040FD00122B844434C02FAF1
:1036500003F3013B184059F0CDF898F810310344BA
:1036600004EBC3042623E38029463D4B204641F862
:103670000C3F50F085FD64B1A2884FF0B0414FF08F
:103680000043B2FA82F2D1F88000D3400343C1F87C
:10369000803003226B2130460DF0F0FE0F200FF03A
:1036A000E1F910226A2130460DF0E8FE0F200FF0FC
:1036B000D9F900226C2130460DF0E0FE0F200FF00A
:1036C000D1F995F82021192130460DF0D7FE0F20B1
:1036D0000FF0C8F918221B2130460DF0CFFE0F2045
:1036E0000FF0C0F918221C2130460DF0C7FE0F2044
:1036F0000FF0B8F91022372130460DF0BFFE0F2031
:103700000FF0B0F90122382130460DF0B7FE0F203E
:103710000FF0A8F92846FCF78FFD1A210246304623
:103720000DF0ACFE01200FF09DF90E480DF070FF7A
:10373000A8822846FFF7B4FE95F9D23001330AD1AA
:1037400095F9D030013306D10620BDE8F0410FF0E5
:1037500001BD002488E7BDE8F08100BFA418002463
:1037600095320408002D310150D6090882692DE9EF
:10377000F04192F8DC308AB00546012B4DD0023B77
:10378000012B55D892F84C31EC46D2F89C2063F0CE
:103790007F032F4C13708769D7F8A03007F110060C
:1037A000D7F8108003F1010E0FCCACE80F00D7F86A
:1037B0009C30CDE9003E0FCCACE80F0094E803004C
:1037C0008CE80300EFF31180102383F312883B6928
:1037D0001B6A002B30D0029B6A461BB1D36914329E
:1037E000002BFBD1D8F82030002B2ED0996839B9A6
:1037F0009A420AD0196829B15B6899680029F7D004
:103800001433F3E71E60C3F804D0C0B280F311880C
:10381000AA6911690B6A002BFCD1D2F8A0305A8832
:1038200052BAEA819A8852BA2A82DB885BBA6B82E2
:1038300001200AB0BDE8F081C0B2C8F820D080F302
:1038400011883046FFF73EFBE2E71E60FFDE00BF57
:1038500098E309082DE9F04190F8DC308AB004467D
:10386000D0F8A050012B5CD044D9023B012B54D896
:1038700090F84D31EC46D0F89C2000F1100763F031
:103880007F035E4E1370D0F8A030D0F8108003F1A3
:10389000010E0FCEACE80F00D4F89C30CDE9003E0D
:1038A0000FCEACE80F0096E803008CE80300EFF3BE
:1038B0001180102383F3128823691B6A002B00F008
:1038C0009280029B6A461BB1D3691432002BFBD154
:1038D000D8F82030002B00F08F80996841B99A42C7
:1038E0003DD01968002937D05B6899680029F6D067
:1038F0001433F2E7D0F89C304FF0FF3205211A6004
:103900005A609A60DA60D0F8E030C0F8F010B3F591
:103910007A7F3BD8032380F8DC3001200AB0BDE871
:10392000F08190F84C2190F84D319B1A5B100133D7
:10393000DBB235F8132005EB430553BAA0F8D030BD
:103940006B885BBAA0F8D230AB885BBAA0F8D430F1
:1039500001200AB0BDE8F0811F60C3F804D0C0B2F6
:1039600080F311882269136A002BFCD16B88012037
:103970005BBAA4F8D030AB885BBAA4F8D230EB883D
:103980005BBAA4F8D4300AB0BDE8F08103691A7BB1
:103990002AB35B691BB390F8983003B390F84C31AD
:1039A0000122D0F89C0063F07F03C4F8A4401449BE
:1039B000037094F84D3194F84C0184F800211B1ADF
:1039C00084F8DC20D4F8A0200733C4F804110132B5
:1039D000D4F89C10C4E93E23C4F8F4109DE70223F8
:1039E00084F8DC3099E7C0B2C8F820D080F31188A1
:1039F0003846FFF767FAB5E71F60FFDE98E309086E
:103A00001102040882682DE9F04F054693B01AB1FF
:103A1000938812681B049361B64B5B68C3F3080379
:103A2000002B40F0F980EFF31183002B40F0F4807D
:103A3000B14B4FF0E024DA6EA069D96E8A42FAD118
:103A4000D3F8581D8142F6D3D3F854644FF47A74F6
:103A50004FF0100C012704FB06F1091A4FF0E0208B
:103A6000B1FBF6F1A34E04FB02114FF47A747268B5
:103A7000C2F30802002A40F09680EFF31182002A78
:103A800040F09180D3F86C80D0F818E0DA6E904561
:103A9000F8D1D3F8582D9645F4D8D3F8549404FBB4
:103AA00009F2A2EB0E02B2FBF9F204FB0822521A51
:103AB000B2F57A7FDBD3AA6812B1116892888A6165
:103AC0000A248C4810264FF0E0214FF47A7C4FF006
:103AD000010B4268C2F30802002A40F08680EFF32F
:103AE0001182002A40F08180DA6ED1F81880DF6EF2
:103AF000BA42F9D1D3F8587DB845F5D8D3F85494E3
:103B00000CFB09FEAEEB080EBEFBF9FE0CFB02EE51
:103B10004268C2F308023ABBEFF3118222BBDF6EA8
:103B2000D1F81890DA6E9742F9D1D3F8582D914513
:103B3000F5D8D3F854A40CFB0AF2A2EB0902B2FBAD
:103B4000FAF20CFB0722A2EB0E02B2F57A7FDFD36A
:103B5000013CBED12B68ADF804401A6A002A74D02B
:103B6000002013B0BDE8F08FEFF3118286F31288C6
:103B7000D1F818900F69FF0303D5C3F854BDD1F8ED
:103B80001890DF6ED2B2D3F8548D82F31188B84406
:103B9000D3F854740CFB07F2A2EB0902B2FBF7F264
:103BA0000CFB0822CFE7EFF311828CF31288D0F8D8
:103BB0001880D0F810E01EF4803F03D0C3F8547D85
:103BC000D0F81880D3F86C90D2B2D3F854ED82F3C9
:103BD0001188CE44D3F8549404FB09F2A2EB0802F6
:103BE000B2FBF9F204FB0E2261E7EFF3118E86F3CC
:103BF0001288D1F818800A69D20303D5C3F854BDDE
:103C0000D1F81880D3F86C905FFA8EFED3F8542D5B
:103C10008EF311884A4471E7EFF31181102383F387
:103C200012884FF0E0229069136913F4803F324B01
:103C300003D00120C3F8540D9069DC6EC9B2D3F8EB
:103C4000542D81F311882244FEE6802101220020B8
:103C500003948DF803100DF103010492029101A960
:103C60008DF828208DF83C200222089100218DF843
:103C70001440069407940B940E9410940992CDE985
:103C80000C01EFF31182102181F312882968096A6F
:103C900029B3049902A859B30146CC691431002C08
:103CA000FBD11B6A53B39C683CB9994209D01C688C
:103CB0002CB15B689C68002CF7D01433F3E7C3E9A0
:103CC0000050D2B282F311882B681A6A002AFCD104
:103CD0009DF80530242B7FF443AF0F2041E702A964
:103CE000D2B2196282F311882846FFF7EBF8EBE7AE
:103CF0000146D6E700ED00E0D81700241D60FFDE86
:103D000038B50446264BD4F8E410586894F8D0200F
:103D1000D4F8D830012AC4F8D8000B44C4F8DC30F9
:103D200005D0D4F8D4300133C4F8D43038BD201DC8
:103D300004F1E8056168EFF3118C102383F3128816
:103D400063681B6A0BB3D4F8F0302A461BB1D36901
:103D50001432002BFBD10B6AFBB1996839B99A4236
:103D600009D0196829B15B6899680029F7D0143324
:103D7000F3E7C3E900055FFA8CFC8CF31188D4F8F3
:103D8000D4300133C4F8D43038BD5FFA8CFC0D62F6
:103D90008CF31188FFF796F8C3E71860FFDE00BFC9
:103DA000001000E02DE9F04185698AB0044695F8DD
:103DB000DC30012B4AD0023B012B52D8D5F89C3085
:103DC0008C222F4EEC461A70D0F818800FCED8F8FF
:103DD00010E008F11007ACE80F00D5F89C30009314
:103DE000D5F8A03001930FCEACE80F0096E80300A1
:103DF0008CE80300EFF31180102383F31288D8F8C6
:103E000010301B6A002B30D0029B6A461BB1D3696D
:103E10001432002BFBD1DEF82030002B2ED0996815
:103E200039B99A420AD0196829B15B6899680029A2
:103E3000F7D01433F3E71F60C3F804D0C0B280F3A7
:103E40001188A3691A69136A002BFCD1D5F8A03038
:103E5000B3F90220E281B3F904202282B3F90630DB
:103E6000638201200AB0BDE8F081C0B2CEF820D054
:103E700080F311883846FFF725F8E2E71F60FFDE80
:103E8000C0E309082DE9F04390F81E318BB00446D9
:103E9000032B1BD090F8DC30D0F8A070012B00F081
:103EA000BA8076D8D0F89C30002205211A605A607A
:103EB0009A609A81D0F8E030C0F8F010B3F57A7FBC
:103EC00000F2B780032380F8DC30B0E0854F002398
:103ED00001220A2007F1200104F1100600978DF855
:103EE0000C208DF820200993CDE90110CDE9043391
:103EF0002169CDE90633EFF31180102383F3128893
:103F000023691B6A002B00F0D4806D46029B2A4671
:103F10001BB1D3691432002BFBD10B6A002B00F0CC
:103F2000DE80996839B9934209D0196829B15B6874
:103F300099680029F7D01433F3E7C3E90065C0B2EC
:103F400080F311882269156A002DFCD17A8C052A2C
:103F500018DD786AB7F92870011403B213F5004F21
:103F600008BF11F5004F14BF0121002117F50043D0
:103F700018BF012353EA010503D0C4F8D000A4F808
:103F8000D470063A002A40F08B8028460BB0BDE87A
:103F9000F083023B012B4AD8D0F89C306D46922228
:103FA000DFF84881AC4600F110061A70D0F8109086
:103FB000B8E80F00ACE80F00B8E80F00ACE80F005D
:103FC000D4F89C3098E803008CE803000093D4F800
:103FD000A0300193EFF31180102383F3128823693B
:103FE0001B6A002B72D0029B2A461BB1D369143284
:103FF000002BFBD1D9F82030002B70D0996841B943
:10400000934239D01968002934D05B689968002937
:10401000F6D01433F2E7B7F90830A0F8D030B7F98A
:104020000A30A0F8D230B7F90C30A0F8D43001250E
:10403000ABE703691A7B002A44D05B69002B41D0AF
:1040400090F89830002B3DD0D0F89C100E228C2098
:104050000123C4F8A44008702348C4F8FC20C4F825
:10406000040184F8003184F8DC30D4E92712C4E973
:104070003D12DCE7C3E90065C0B280F31188226914
:10408000136A002BFCD1B7F90230A4F8D030B7F98D
:104090000430A4F8D230B7F90630A4F8D430C6E71B
:1040A0003046B0227E210DF0E9F928460BB0BDE87C
:1040B000F083C0B2C1F820D080F311883046FEF7FB
:1040C00001FF3FE7022384F8DC30B0E7C0B2C9F853
:1040D000205080F311883046FEF7F4FECFE71E60D3
:1040E000FFDE00BFE0BB002461020408C0E3090852
:1040F0002DE9F04F00F11005B62290F81EB193B0F3
:104100007E21064628464FF0640A0DF0B7F9BE4CF2
:10411000BE4F4FF010084FF0E0224FF47A7C4FF082
:104120000109AE467B68C3F30803002B40F08C8284
:10413000EFF31183002B40F08782E36E9069E16E0C
:104140008B42FAD1D4F8581D8842F6D8D4F85414CA
:104150000CFB01F52D1AB5FBF1F50CFB0355CDE970
:1041600000E67B68C3F30803002B40F0B781EFF350
:104170001183002B40F0B281E66E9369E16E8E42AE
:10418000FAD1D4F8581D8B42F6D8D4F854140CFB4D
:1041900001F0C31AB3FBF1F30CFB06335B1BB3F561
:1041A0007A7FDED3BAF1010ADDE900E6BAD1B2695D
:1041B00075461AB1938812681B049361934B5B6830
:1041C000C3F30803002B41F02583EFF31183002B89
:1041D00041F020834FF0E02CE26EDCF81870E36EC3
:1041E0009A42F9D1D4F8583D9F42F5D8C31BB3FB8E
:1041F000F1F34FF47A7101FB0233844F4FF0E02169
:104200004FF47A704FF0100E4FF0010C7A68C2F341
:104210000802002A40F09281EFF31182002A40F058
:104220008D81D4F86C80D1F81890E26E9045F8D169
:10423000D4F8582D9145F4D8D4F854A400FB0AF2D0
:10424000A2EB0902B2FBFAF200FB0822D21AB2F585
:104250007A7FDBD3B36913B11A689B8893610A2212
:10426000DFF8A8814FF010094FF0E0214FF47A7C7D
:104270004FF0010AD8F80430C3F30803002B40F0D4
:10428000C381EFF31183002B40F0BE81E36E8F6991
:10429000E06E8342FAD1D4F8580D8742F6D8D4F8AC
:1042A000540400950CFB00FEAEEB0707B7FBF0F7DC
:1042B0000CFB0377D8F80430C3F30803002B40F05D
:1042C0002A81EFF31183002B40F02581E06E8D6988
:1042D000E36E9842FAD1D4F8583D9D42F6D8D4F80E
:1042E00054E40CFB0EF35B1BB3FBFEF30CFB00333F
:1042F000DB1BB3F57A7FDDD3013A009DBAD17C2177
:1043000028460DF0BBF8414B5B68C3F30803002B54
:1043100041F06882EFF31183002B41F063824FF08C
:10432000E020E36E8169E26E9342FAD1D4F8582D11
:104330009142F6D8D4F854744FF47A704FF0100EBE
:104340004FF0010C00FB07F2521A4FF0E021B2FBD4
:10435000F7F22E4F00FB03224FF47A707B68C3F311
:104360000803002B40F00C81EFF31183002B40F089
:104370000781D4F86C80D1F81890E36E9845F8D195
:10438000D4F8583D9945F4D8D4F854A400FB0AF366
:10439000A3EB0903B3FBFAF300FB08339B1AB3F555
:1043A0007A7FDBD30022592128460DF067F8174B9E
:1043B0005B68C3F30803002B41F0FC81EFF311832A
:1043C000002B41F0F7814FF0E020E36E8169E26E4F
:1043D0009342FAD1D4F8582D9142F6D8D4F85474B7
:1043E0004FF47A704FF0100E4FF0010C00FB07F203
:1043F000521A4FF0E021B2FBF7F2044F00FB032208
:104400004FF47A7004E000BFD817002400ED00E0FC
:104410007B68C3F30803002B40F0D480EFF31183D3
:10442000002B40F0CF80D4F86C80D1F81890E36E68
:104430009845F8D1D4F8583D9945F4D8D4F854A407
:1044400000FB0AF3A3EB0903B3FBFAF300FB083309
:104450009B1AB3F57A7FDBD35E2331698DF80B307D
:104460000DF10B030393002304938DF81830079389
:1044700009931193CDE90C33CDE90E330123059354
:104480008DF82C308DF84030794B08934FF4A4739D
:104490000A93EFF31180102383F3128833691B6AA8
:1044A000002B01F0568203AF059B3A461BB1D3693E
:1044B0001432002BFBD10B6A002B01F04183996869
:1044C00051B9934200F0D8801968002900F0D280D9
:1044D0005B6899680029F4D01433F0E7EFF3118199
:1044E00088F3128893691069C60302D5C4F8549DF5
:1044F0009369E06EC9B2D4F8546D81F31188D4F891
:10450000541406EB000E0CFB01F0C31AB3FBF1F3DD
:104510000CFB0E3342E6EFF3118389F312888D69A9
:104520000869C00302D5C4F854AD8D69E06EDBB2F2
:10453000D4F854ED83F311887044D0E6EFF3118280
:104540008EF31288D1F818A0D1F8108018F4803FAB
:1045500003D0C4F854CDD1F818A0D4F86C90D2B2DE
:10456000D4F8548D82F31188C844D4F8549400FBD5
:1045700009F2A2EB0A02B2FBF9F200FB082265E69F
:10458000EFF311838EF31288D1F818A0D1F81080C0
:1045900018F4803F03D0C4F854CDD1F818A0D4F853
:1045A0006C90DBB2D4F8548D83F31188C844D4F8EE
:1045B000549400FB09F3A3EB0A03B3FBF9F300FBEC
:1045C0000833EBE6EFF311838EF31288D1F818A0CD
:1045D000D1F8108018F4803F03D0C4F854CDD1F83E
:1045E00018A0D4F86C90DBB2D4F8548D83F3118802
:1045F000C844D4F8549400FB09F3A3EB0A03B3FBBB
:10460000F9F300FB083323E7EFF3118089F31288F5
:10461000D1F818E00B69DF0303D5C4F854ADD1F825
:1046200018E0E76EC0B2D4F8543D80F31188D4F896
:1046300054043B4400950CFB00F7A7EB0E07B7FBB7
:10464000F0F70CFB037735E6EFF3118188F312885E
:1046500090691369DB0302D5C4F8549D9069E56E37
:10466000C9B2D4F8543D81F311882B446EE500BFE4
:10467000E8E30908C3E90057C0B280F31188326942
:10468000136A002BFCD10A20DFF8BCE34FF01008BE
:104690004FF0E0224FF47A774FF001090095DEF8F1
:1046A0000430C3F30803002B40F05D84EFF3118363
:1046B000002B40F05884E36E9569E16E8B42FAD18D
:1046C000D4F8581D8D42F6D8D4F8541407FB01FADB
:1046D000AAEB050C8246BCFBF1FC07FB03CCDEF821
:1046E0000430C3F30803002B40F08083EFF3118301
:1046F000002B40F07B83E16E9069E36E9942FAD122
:10470000D4F8583D9842F6D8D4F8545407FB05F332
:104710001B1AB3FBF5F307FB0133A3EB0C03B3F553
:104720007A7FDCD350460138B9D1009D012259214E
:1047300028460CF0A3FEC44B5B68C3F30803002BB0
:1047400041F02080EFF31183002B41F01B804FF0EC
:10475000E020E36E8169E26E9342FAD1D4F8582DDD
:104760009142F6D8D4F854744FF47A704FF0100E8A
:104770004FF0010C00FB07F2521A4FF0E021B2FBA0
:10478000F7F2B14F00FB03224FF47A707B68C3F35A
:104790000803002B40F0C583EFF31183002B40F09A
:1047A000C083D4F86C80D1F81890E36E9845F8D1A6
:1047B000D4F8583D9945F4D8D4F854A400FB0AF332
:1047C000A3EB0903B3FBFAF300FB08339B1AB3F521
:1047D0007A7FDBD3BBF1030F00F010869B224021D0
:1047E00028460CF04BFE984B5B68C3F30803002B84
:1047F00040F0EC85EFF31183002B40F0E7854FF09C
:10480000E020E36E8169E26E9342FAD1D4F8582D2C
:104810009142F6D8D4F854744FF47A704FF0100ED9
:104820004FF0010C00FB07F2521A4FF0E021B2FBEF
:10483000F7F2854F00FB03224FF47A707B68C3F3D5
:104840000803002B40F04B83EFF31183002B40F063
:104850004683D4F86C80D1F81890E36E9845F8D16F
:10486000D4F8583D9945F4D8D4F854A400FB0AF381
:10487000A3EB0903B3FBFAF300FB08339B1AB3F570
:104880007A7FDBD30322412128460CF0F7FD6E4BE3
:104890005B68C3F30803002B40F07E85EFF31183C0
:1048A000002B40F079854FF0E020E36E8169E26EE5
:1048B0009342FAD1D4F8582D9142F6D8D4F85474D2
:1048C0004FF47A704FF0100E4FF0010C00FB07F21E
:1048D000521A4FF0E021B2FBF7F25B4F00FB0322CC
:1048E0004FF47A707B68C3F30803002B40F0B38267
:1048F000EFF31183002B40F0AE82D4F86C80D1F836
:104900001890E36E9845F8D1D4F8583D9945F4D8FD
:10491000D4F854A400FB0AF3A3EB0903B3FBFAF3A6
:1049200000FB08339B1AB3F57A7FDBD394F85D3D27
:10493000012B00F02E85023B012B8CBFCD22ED22F6
:10494000422128460CF09AFD3F4B5B68C3F30803F5
:10495000002B40F00685EFF31183002B40F001851A
:104960004FF0E020E36E8169E26E9342FAD1D4F811
:10497000582D9142F6D8D4F854744FF47A704FF011
:10498000100E4FF0010C00FB07F2521A4FF0E0211D
:10499000B2FBF7F22C4F00FB03224FF47A707B68D6
:1049A000C3F30803002B40F03482EFF31183002B94
:1049B00040F02F82D4F86C80D1F81890E36E9845BF
:1049C000F8D1D4F8583D9945F4D8D4F854A400FB54
:1049D0000AF3A3EB0903B3FBFAF300FB08339B1ABA
:1049E000B3F57A7FDBD30822432128460CF046FD3D
:1049F000154B5B68C3F30803002B40F05584EFF3BD
:104A00001183002B40F050844FF0E020E26E81696A
:104A1000E36E9342FAD1D4F8582D9142F6D8D4F8E7
:104A200054744FF47A704FF0100E4FF0010C00FBED
:104A300007F2521A4FF0E021B2FBF7F2024F00FBEF
:104A400003224FF47A7001E000ED00E07B68C3F3CD
:104A50000803002B40F02182EFF31183002B40F07C
:104A60001C82E36ED1F81890D4F86C809845F8D188
:104A7000D4F8583D4B45F4D3D4F854A400FB0AF3C2
:104A8000A3EB0903B3FBFAF300FB08339B1AB3F55E
:104A90007A7FDBD3BBF1030F00F096830422582109
:104AA00028460CF0EBFCC94B5B68C3F30803002BF2
:104AB00040F07882EFF31183002B40F073824FF0C7
:104AC000E020E26E8169E36E9342FAD1D4F8582D6A
:104AD0009142F6D8D4F854744FF47A70DFF8ECE2CF
:104AE0004FF0100C00FB07F2521A4FF47A71B2FB30
:104AF000F7F2012700FB03224FF0E020DEF804303C
:104B0000C3F30803002B40F0CA82EFF31183002B9C
:104B100040F0C582E36ED0F81890D4F86C809845C8
:104B2000F8D1D4F8583D9945F4D8D4F854A401FBF1
:104B30000AF3A3EB0903B3FBFAF301FB08339B1A57
:104B4000B3F57A7FDAD30A22532128460CF096FC7B
:104B50009E4B5B68C3F30803002B40F0D483EFF354
:104B60001183002B40F0CF834FF0E020E26E81698B
:104B7000E36E9342FAD1D4F8582D8A42F6D3D4F892
:104B800054744FF47A704FF0100E4FF0010C00FB8C
:104B900007F2521A4FF0E021B2FBF7F28B4F00FB05
:104BA00003224FF47A707B68C3F30803002B40F0B4
:104BB0005482EFF31183002B40F04F82D4F86C80C5
:104BC000D1F81890E36E9845F8D1D4F8583D99453E
:104BD000F4D8D4F854A400FB0AF3A3EB0903B3FB05
:104BE000FAF300FB08339B1AB3F57A7FDBD302227A
:104BF0007C2128460CF042FC744B5B68C3F308032D
:104C0000002B40F06983EFF31183002B40F06483A5
:104C10004FF0E020E26E8169E36E9342FAD1D4F85E
:104C2000582D8A42F6D3D4F854744FF47A704FF06A
:104C3000100E4FF0010C00FB07F2521A4FF0E0216A
:104C4000B2FBF7F2614F00FB03224FF47A707B68EE
:104C5000C3F30803002B40F0DE81EFF31183002B38
:104C600040F0D981E36ED1F81890D4F86C80984563
:104C7000F8D1D4F8583D4B45F4D3D4F854A400FBF4
:104C80000AF3A3EB0903B3FBFAF300FB08339B1A07
:104C9000B3F57A7FDBD30E227D2128460CF0EEFBA4
:104CA0004A4B5B68C3F30803002B40F04383EFF3E8
:104CB0001183002B40F03E834FF0E020E36E8169CA
:104CC000E26E9342FAD1D4F8582D9142F6D8D4F836
:104CD00054744FF47A704FF0100E4FF0010C00FB3B
:104CE00007F2521A4FF0E021B2FBF7F2374F00FB08
:104CF00003224FF47A707B68C3F30803002B40F063
:104D00006881EFF31183002B40F06381E36ED1F8EB
:104D10001890D4F86C809845F8D1D4F8583D99454E
:104D2000F4D8D4F854A400FB0AF3A3EB0903B3FBB3
:104D3000FAF300FB08339B1AB3F57A7FDBD3BBF1A0
:104D4000030F00F0CE8196F82131A3B31C0903F0C4
:104D50000F03013C062C00F2EA861D4D05EB4402D0
:104D6000B2F8000140FA03F2D20740F1E0860122D6
:104D70002544184C02FA03F3013B184057F03AFD62
:104D800095F8103131462622034404EBC304124B3C
:104D9000E280204641F80C3F4FF0F2F9A2884FF034
:104DA000B0414FF00043B2FA82F2D1F88000D34014
:104DB0000343C1F88030094A0223094952085B00C5
:104DC0008A429BB20ED9FF2BF8D90BE000ED00E030
:104DD00050D60908A4180024013D040880F0FA0206
:104DE00080969800B38213B0BDE8F08FEFF3118383
:104DF00088F3128890691169C90302D5C4F8549DDB
:104E00009069E56EDBB2D4F8541D83F31188294410
:104E10007AE4EFF311838EF31288D1F818A0D1F859
:104E2000108018F4803F03D0C4F854CDD1F818A0F6
:104E3000D4F86C90DBB2D4F8548D83F31188C84455
:104E4000D4F8549400FB09F3A3EB0A03B3FBF9F382
:104E500000FB0833C3E5EFF311838EF31288D1F81A
:104E600018A0D1F8108018F4803F03D0C4F854CDB6
:104E7000D1F818A0D4F86C90DBB2D4F8548D83F339
:104E80001188C844D4F8549400FB09F3A3EB0A0337
:104E9000B3FBF9F300FB083344E5EFF311838EF322
:104EA0001288D1F818A0D1F8108018F4803F03D0F0
:104EB000C4F854CDD1F818A0D4F86C90DBB2D4F873
:104EC000548D83F31188C844D4F8549400FB09F33B
:104ED000A3EB0A03B3FBF9F300FB0833D6E5EFF3CA
:104EE00011838EF31288D1F818A0D1F8108018F42D
:104EF000803F03D0C4F854CDD1F818A0D4F86C90FA
:104F0000DBB2D4F8548D83F31188C844D4F8549498
:104F100000FB09F3A3EB0A03B3FBF9F300FB08332F
:104F2000ACE4EFF311838EF31288D1F818A0D1F816
:104F3000108018F4803F03D0C4F854CDD1F818A0E5
:104F4000D4F86C90DBB2D4F8548D83F31188C84444
:104F5000D4F8549400FB09F3A3EB0A03B3FBF9F371
:104F600000FB083332E4EFF3118188F3128895696E
:104F70001369DB0302D5C4F8549D9569E36EC9B289
:104F8000D4F854CD81F31188D4F854146344824684
:104F900007FB01FCACEB050CBCFBF1FC07FB03CCF5
:104FA000FFF79DBBEFF31182102383F312884FF0BC
:104FB000E02399691869C00303D50121C4F8541D81
:104FC0009969E06ED2B2D4F8543D82F3118803445B
:104FD00080E5EFF311838EF31288D1F818A0D1F891
:104FE000108018F4803F03D0C4F854CDD1F818A035
:104FF000D4F86C90DBB2D4F8548D83F31188C84494
:10500000D4F8549400FB09F3A3EB0A03B3FBF9F3C0
:1050100000FB08338FE6EFF311838EF31288D1F88B
:1050200018A0D1F8108018F4803F03D0C4F854CDF4
:10503000D1F818A0D4F86C90DBB2D4F8548D83F377
:105040001188C844D4F8549400FB09F3A3EB0A0375
:10505000B3FBF9F300FB083319E6EFF311838EF38A
:105060001288D1F818A0D1F8108018F4803F03D02E
:10507000C4F854CDD1F818A0D4F86C90DBB2D4F8B1
:10508000548D83F31188C844D4F8549400FB09F379
:10509000A3EB0A03B3FBF9F300FB0833A3E5EFF33B
:1050A00011838CF31288D0F818A0D0F8108018F46F
:1050B000803F03D0C4F8547DD0F818A0D4F86C9089
:1050C000DBB2D4F8548D83F31188C844D4F85494D7
:1050D00001FB09F3A3EB0A03B3FBF9F301FB08336C
:1050E0002DE5B0227E2128460CF0C8F9B64B5B684E
:1050F000C3F30803002B40F04D84EFF31183002B22
:1051000040F048844FF0E020E36E8269E16E8B420C
:10511000FAD1D4F8581D8A42F6D8D4F854044FF482
:105120007A7101FB00F5AD1AB5FBF0F501FB0355F3
:10513000DFF894824FF0E0214FF47A774FF0100EB1
:10514000D8F804304FF0010CC3F30803FBB9EFF3B8
:105150001183E3B9E26E8869E36E9342FAD1D4F821
:10516000582D9042F6D8D4F8549407FB09F2121A3D
:10517000B2FBF9F207FB03235B1BB3F57A7FBFF4A5
:10518000E2ADD8F80430C3F30803002BDFD0EFF30F
:1051900011838EF3128888690A69D20302D5C4F894
:1051A00054CD8869D4F86C90DBB2D4F8542D83F3D5
:1051B00011884A44D4F8549407FB09F31B1AB3FB33
:1051C000F9F307FB0233D7E70222582128460CF0F7
:1051D00055F97D4B5B68C3F30803002B40F0C38394
:1051E000EFF31183002B40F0BE834FF0E020E36E1D
:1051F0008169E26E9342FAD1D4F8582D8A42F6D3EF
:10520000D4F854744FF47A70DFF8BCE14FF0100C0E
:1052100000FB07F2521A4FF0E021B2FBF7F200FB5D
:105220000322DEF804304FF47A700127C3F3080339
:1052300013BBEFF31183FBB9D4F86C80D1F818A03D
:10524000E36E9845F8D1D4F8583D5345F4D3D4F8DB
:10525000549400FB09F3A3EB0A03B3FBF9F300FB3F
:1052600008339B1AB3F57A7FBFF46DACDEF80430D7
:10527000C3F30803002BDCD0EFF311838CF3128807
:10528000D1F818A0D1F8108018F4803F03D0C4F8EA
:10529000547DD1F818A0D4F86C90DBB2D4F8548DBA
:1052A00083F31188C844D2E7EFF31182102383F30C
:1052B00012884FF0E02399691869C00303D50121D2
:1052C000C4F8541D9969E06ED2B2D4F8543D82F30B
:1052D00011880344FFF7A3BBEFF31182102383F37C
:1052E00012884FF0E02399691869C00303D50121A2
:1052F000C4F8541D9969E06ED2B2D4F8543D82F3DB
:10530000118803448FE4EFF31182102383F3128892
:105310004FF0E02399691869C70303D50121C4F848
:10532000541D9969E06ED2B2D4F8543D82F31188CD
:10533000034424E4EFF31182102383F312884FF027
:10534000E02399691869C70303D50121C4F8541DE6
:105350009969E06ED2B2D4F8543D82F311880344C7
:10536000B5E4EFF31182102383F312884FF0E023AA
:1053700099691869C70303D50121C4F8541D9969B7
:10538000E06ED2B2D4F8543D82F311880344FFF7A3
:10539000F2BADD22FFF7D4BAEFF31182102383F3C0
:1053A00012884FF0E02399691869C00303D50121E1
:1053B000C4F8541D9969E06ED2B2D4F8543D82F31A
:1053C00011880344FFF77ABA00ED00E0EFF3118291
:1053D000102383F312884FF0E02399691869C703FB
:1053E00003D50121C4F8541D9969E06ED2B2D4F8F6
:1053F000543D82F311880344FFF70CBA0022482180
:1054000028460CF03BF8C04B5B68C3F30803002B45
:1054100040F00583EFF31183002B40F000834FF041
:10542000E020E36E8269E16E8B42FAD1D4F8581D18
:105430008A42F6D8D4F854044FF47A7101FB00F78D
:10544000BF1AB7FBF0F701FB0377DFF8BC924FF010
:10545000E0214FF47A7C4FF010084FF0010ED9F89C
:105460000430C3F30803002B40F05482EFF31183A0
:10547000002B40F04F82E36E8869E26E9342FAD1CE
:10548000D4F8582D9042F6D8D4F854A40CFB0AF264
:10549000121AB2FBFAF20CFB0323DB1BB3F57A7F83
:1054A000DDD38022492128460BF0E8FF964B5B684C
:1054B000C3F30803002B40F0F682EFF31183002BB7
:1054C00040F0F1824FF0E020E36E8269E16E8B42A2
:1054D000FAD1D4F8581D8A42F6D8D4F854044FF4BF
:1054E0007A7101FB00F7BF1AB7FBF0F701FB0377F6
:1054F000DFF814924FF0E0214FF47A7C4FF010085F
:105500004FF0010ED9F80430C3F30803002B40F02C
:10551000E281EFF31183002B40F0DD81E36E8869B7
:10552000E26E9342FAD1D4F8582D9042F6D8D4F8CE
:1055300054A40CFB0AF2121AB2FBFAF20CFB03237E
:10554000DB1BB3F57A7FDDD30022452128460BF023
:1055500095FF6D4B5B68C3F30803002B40F03D8261
:10556000EFF31183002B40F038824FF0E020E36E20
:105570008269E16E8B42FAD1D4F8581D8A42F6D87E
:10558000D4F854044FF47A7101FB00F7BF1AB7FB4B
:10559000F0F701FB0377DFF870914FF0E0214FF453
:1055A0007A7C4FF010084FF0010ED9F80430C3F3A5
:1055B0000803002B40F07081EFF31183002B40F0C3
:1055C0006B81E36E8869E26E9342FAD1D4F8582D6C
:1055D0009042F6D8D4F854A40CFB0AF2121AB2FB8B
:1055E000FAF20CFB0323DB1BB3F57A7FDDD3062233
:1055F000462128460BF042FF434B5B68C3F3080388
:10560000002B40F07282EFF31183002B40F06D828B
:105610004FF0E020E36E8269E16E8B42FAD1D4F85C
:10562000581D8A42F6D8D4F854044FF47A7101FB1D
:1056300000F7BF1AB7FBF0F701FB0377DFF8C8905C
:105640004FF0E0214FF47A7C4FF010084FF0010E3C
:10565000D9F80430C3F30803002B40F0FE80EFF3C9
:105660001183002B40F0F980E36E8869E26E93426B
:10567000FAD1D4F8582D9042F6D8D4F854A40CFBA3
:105680000AF2121AB2FBFAF20CFB0323DB1BB3F58E
:105690007A7FDDD30022472128460BF0EFFE1A4B1C
:1056A0005B68C3F30803002B40F0DB81EFF3118349
:1056B000002B40F0D6814FF0E020E36E8269E16E6E
:1056C0008B42FAD1D4F8581D8A42F6D8D4F8540443
:1056D0004FF47A7101FB00F7BF1AB7FBF0F701FB3B
:1056E0000377DFF824904FF0E0214FF47A7C4FF0FD
:1056F0001008D9F804304FF0010EC3F3080313BBB0
:10570000EFF31183FBB901E000ED00E0E36E88697F
:10571000E26E9342FAD1D4F8582D9042F6D8D4F8DC
:1057200054A40CFB0AF2121AB2FBFAF20CFB03238C
:10573000DB1BB3F57A7FBFF451A8D9F80430C3F36B
:105740000803002BDCD0EFF3118388F31288D1F823
:1057500018A00A69D20303D5C4F854EDD1F818A0F3
:10576000E06EDBB2D4F8542D83F311880244D4F8F0
:1057700054040CFB00F3A3EB0A03B3FBF0F30CFBA4
:105780000233D5E7EFF31182102383F312884FF031
:10579000E02399691869C70303D50121C4F8541D92
:1057A0009969E06ED2B2D4F8543D82F31188034473
:1057B000FEF7D8BFEFF31182102383F312884FF066
:1057C000E02399691869C00303D50121C4F8541D69
:1057D0009969E06ED2B2D4F8543D82F31188034443
:1057E000FEF7FCBDEFF31182102383F312884FF014
:1057F000E02399691869C70303D50121C4F8541D32
:105800009969E06ED2B2D4F8543D82F31188034412
:10581000FEF790BDEFF31182102383F312884FF04F
:10582000E02399691869C00303D50121C4F8541D08
